{
  "contractName": "FoodSupply",
  "abi": [
    {
      "anonymous": false,
      "inputs": [
        {
          "indexed": false,
          "internalType": "uint256",
          "name": "productId",
          "type": "uint256"
        },
        {
          "indexed": false,
          "internalType": "address",
          "name": "buyer",
          "type": "address"
        }
      ],
      "name": "bought",
      "type": "event"
    },
    {
      "anonymous": false,
      "inputs": [
        {
          "indexed": false,
          "internalType": "uint256",
          "name": "productId",
          "type": "uint256"
        },
        {
          "indexed": false,
          "internalType": "address",
          "name": "buyer",
          "type": "address"
        },
        {
          "indexed": false,
          "internalType": "string",
          "name": "review",
          "type": "string"
        }
      ],
      "name": "delivered",
      "type": "event"
    },
    {
      "anonymous": false,
      "inputs": [
        {
          "indexed": false,
          "internalType": "uint256",
          "name": "productId",
          "type": "uint256"
        },
        {
          "indexed": false,
          "internalType": "address",
          "name": "buyer",
          "type": "address"
        },
        {
          "indexed": false,
          "internalType": "string",
          "name": "review",
          "type": "string"
        }
      ],
      "name": "refunded",
      "type": "event"
    },
    {
      "anonymous": false,
      "inputs": [
        {
          "indexed": false,
          "internalType": "string",
          "name": "name",
          "type": "string"
        },
        {
          "indexed": false,
          "internalType": "uint256",
          "name": "productId",
          "type": "uint256"
        },
        {
          "indexed": false,
          "internalType": "uint256",
          "name": "totalPrice",
          "type": "uint256"
        },
        {
          "indexed": false,
          "internalType": "address",
          "name": "seller",
          "type": "address"
        }
      ],
      "name": "registered",
      "type": "event"
    },
    {
      "constant": true,
      "inputs": [
        {
          "internalType": "uint256",
          "name": "",
          "type": "uint256"
        }
      ],
      "name": "products",
      "outputs": [
        {
          "internalType": "string",
          "name": "name",
          "type": "string"
        },
        {
          "internalType": "string",
          "name": "details",
          "type": "string"
        },
        {
          "internalType": "address payable",
          "name": "seller",
          "type": "address"
        },
        {
          "internalType": "uint256",
          "name": "productId",
          "type": "uint256"
        },
        {
          "internalType": "uint256",
          "name": "price",
          "type": "uint256"
        },
        {
          "internalType": "uint256",
          "name": "quantity",
          "type": "uint256"
        },
        {
          "internalType": "uint256",
          "name": "totalPrice",
          "type": "uint256"
        },
        {
          "internalType": "address payable",
          "name": "buyer",
          "type": "address"
        },
        {
          "internalType": "address",
          "name": "preseller",
          "type": "address"
        },
        {
          "internalType": "bool",
          "name": "delivered",
          "type": "bool"
        },
        {
          "internalType": "string",
          "name": "review",
          "type": "string"
        }
      ],
      "payable": false,
      "stateMutability": "view",
      "type": "function"
    },
    {
      "constant": false,
      "inputs": [
        {
          "internalType": "string",
          "name": "_name",
          "type": "string"
        },
        {
          "internalType": "string",
          "name": "_details",
          "type": "string"
        },
        {
          "internalType": "uint256",
          "name": "_price",
          "type": "uint256"
        },
        {
          "internalType": "uint256",
          "name": "_quantity",
          "type": "uint256"
        }
      ],
      "name": "registerProduct",
      "outputs": [],
      "payable": false,
      "stateMutability": "nonpayable",
      "type": "function"
    },
    {
      "constant": true,
      "inputs": [
        {
          "internalType": "uint256",
          "name": "_productId",
          "type": "uint256"
        }
      ],
      "name": "getDetails",
      "outputs": [
        {
          "internalType": "string",
          "name": "",
          "type": "string"
        },
        {
          "internalType": "string",
          "name": "",
          "type": "string"
        },
        {
          "internalType": "uint256",
          "name": "",
          "type": "uint256"
        },
        {
          "internalType": "uint256",
          "name": "",
          "type": "uint256"
        },
        {
          "internalType": "address",
          "name": "",
          "type": "address"
        },
        {
          "internalType": "address",
          "name": "",
          "type": "address"
        },
        {
          "internalType": "string",
          "name": "",
          "type": "string"
        }
      ],
      "payable": false,
      "stateMutability": "view",
      "type": "function"
    },
    {
      "constant": false,
      "inputs": [
        {
          "internalType": "uint256",
          "name": "_productId",
          "type": "uint256"
        }
      ],
      "name": "buy",
      "outputs": [],
      "payable": true,
      "stateMutability": "payable",
      "type": "function"
    },
    {
      "constant": false,
      "inputs": [
        {
          "internalType": "uint256",
          "name": "_productId",
          "type": "uint256"
        },
        {
          "internalType": "string",
          "name": "_review",
          "type": "string"
        }
      ],
      "name": "delivery",
      "outputs": [],
      "payable": false,
      "stateMutability": "nonpayable",
      "type": "function"
    },
    {
      "constant": false,
      "inputs": [
        {
          "internalType": "uint256",
          "name": "_productId",
          "type": "uint256"
        },
        {
          "internalType": "string",
          "name": "_review",
          "type": "string"
        }
      ],
      "name": "refund",
      "outputs": [],
      "payable": false,
      "stateMutability": "nonpayable",
      "type": "function"
    },
    {
      "constant": false,
      "inputs": [
        {
          "internalType": "string",
          "name": "_name",
          "type": "string"
        },
        {
          "internalType": "string",
          "name": "_details",
          "type": "string"
        },
        {
          "internalType": "uint256",
          "name": "_productId",
          "type": "uint256"
        },
        {
          "internalType": "uint256",
          "name": "_price",
          "type": "uint256"
        }
      ],
      "name": "reSell",
      "outputs": [],
      "payable": false,
      "stateMutability": "nonpayable",
      "type": "function"
    }
  ],
  "bytecode": "0x6080604052600160005534801561001557600080fd5b506124f5806100256000396000f3fe6080604052600436106100705760003560e01c8063b93a89f71161004e578063b93a89f714610465578063c38f01aa14610665578063d96a094a146107d8578063f4cbd34d1461080657610070565b806365670b5d146100755780637acc0b2014610147578063a945727614610393575b600080fd5b34801561008157600080fd5b506101456004803603604081101561009857600080fd5b8101908080359060200190929190803590602001906401000000008111156100bf57600080fd5b8201836020820111156100d157600080fd5b803590602001918460018302840111640100000000831117156100f357600080fd5b91908080601f016020809104026020016040519081016040528093929190818152602001838380828437600081840152601f19601f820116905080830192505050505050509192919290505050610979565b005b34801561015357600080fd5b506101806004803603602081101561016a57600080fd5b8101908080359060200190929190505050610cdf565b6040518080602001806020018c73ffffffffffffffffffffffffffffffffffffffff1673ffffffffffffffffffffffffffffffffffffffff1681526020018b81526020018a81526020018981526020018881526020018773ffffffffffffffffffffffffffffffffffffffff1673ffffffffffffffffffffffffffffffffffffffff1681526020018673ffffffffffffffffffffffffffffffffffffffff1673ffffffffffffffffffffffffffffffffffffffff168152602001851515151581526020018060200184810384528f818151815260200191508051906020019080838360005b83811015610280578082015181840152602081019050610265565b50505050905090810190601f1680156102ad5780820380516001836020036101000a031916815260200191505b5084810383528e818151815260200191508051906020019080838360005b838110156102e65780820151818401526020810190506102cb565b50505050905090810190601f1680156103135780820380516001836020036101000a031916815260200191505b50848103825285818151815260200191508051906020019080838360005b8381101561034c578082015181840152602081019050610331565b50505050905090810190601f1680156103795780820380516001836020036101000a031916815260200191505b509e50505050505050505050505050505060405180910390f35b34801561039f57600080fd5b50610463600480360360408110156103b657600080fd5b8101908080359060200190929190803590602001906401000000008111156103dd57600080fd5b8201836020820111156103ef57600080fd5b8035906020019184600183028401116401000000008311171561041157600080fd5b91908080601f016020809104026020016040519081016040528093929190818152602001838380828437600081840152601f19601f820116905080830192505050505050509192919290505050610f7b565b005b34801561047157600080fd5b5061049e6004803603602081101561048857600080fd5b81019080803590602001909291905050506113ab565b6040518080602001806020018881526020018781526020018673ffffffffffffffffffffffffffffffffffffffff1673ffffffffffffffffffffffffffffffffffffffff1681526020018573ffffffffffffffffffffffffffffffffffffffff1673ffffffffffffffffffffffffffffffffffffffff1681526020018060200184810384528b818151815260200191508051906020019080838360005b8381101561055657808201518184015260208101905061053b565b50505050905090810190601f1680156105835780820380516001836020036101000a031916815260200191505b5084810383528a818151815260200191508051906020019080838360005b838110156105bc5780820151818401526020810190506105a1565b50505050905090810190601f1680156105e95780820380516001836020036101000a031916815260200191505b50848103825285818151815260200191508051906020019080838360005b83811015610622578082015181840152602081019050610607565b50505050905090810190601f16801561064f5780820380516001836020036101000a031916815260200191505b509a505050505050505050505060405180910390f35b34801561067157600080fd5b506107d66004803603608081101561068857600080fd5b81019080803590602001906401000000008111156106a557600080fd5b8201836020820111156106b757600080fd5b803590602001918460018302840111640100000000831117156106d957600080fd5b91908080601f016020809104026020016040519081016040528093929190818152602001838380828437600081840152601f19601f8201169050808301925050505050505091929192908035906020019064010000000081111561073c57600080fd5b82018360208201111561074e57600080fd5b8035906020019184600183028401116401000000008311171561077057600080fd5b91908080601f016020809104026020016040519081016040528093929190818152602001838380828437600081840152601f19601f82011690508083019250505050505050919291929080359060200190929190803590602001909291905050506116cd565b005b610804600480360360208110156107ee57600080fd5b8101908080359060200190929190505050611a7b565b005b34801561081257600080fd5b506109776004803603608081101561082957600080fd5b810190808035906020019064010000000081111561084657600080fd5b82018360208201111561085857600080fd5b8035906020019184600183028401116401000000008311171561087a57600080fd5b91908080601f016020809104026020016040519081016040528093929190818152602001838380828437600081840152601f19601f820116905080830192505050505050509192919290803590602001906401000000008111156108dd57600080fd5b8201836020820111156108ef57600080fd5b8035906020019184600183028401116401000000008311171561091157600080fd5b91908080601f016020809104026020016040519081016040528093929190818152602001838380828437600081840152601f19601f8201169050808301925050505050505091929192908035906020019092919080359060200190929190505050611d2c565b005b3373ffffffffffffffffffffffffffffffffffffffff1660018084038154811061099f57fe5b90600052602060002090600a020160070160009054906101000a900473ffffffffffffffffffffffffffffffffffffffff1673ffffffffffffffffffffffffffffffffffffffff1614610a3d576040517f08c379a00000000000000000000000000000000000000000000000000000000081526004018080602001828103825260228152602001806123ef6022913960400191505060405180910390fd5b60001515600180840381548110610a5057fe5b90600052602060002090600a020160080160149054906101000a900460ff16151514610ac7576040517f08c379a000000000000000000000000000000000000000000000000000000000815260040180806020018281038252603081526020018061245e6030913960400191505060405180910390fd5b600180830381548110610ad657fe5b90600052602060002090600a020160070160009054906101000a900473ffffffffffffffffffffffffffffffffffffffff1673ffffffffffffffffffffffffffffffffffffffff166108fc600180850381548110610b3057fe5b90600052602060002090600a0201600601549081150290604051600060405180830381858888f19350505050158015610b6d573d6000803e3d6000fd5b506000600180840381548110610b7f57fe5b90600052602060002090600a020160070160006101000a81548173ffffffffffffffffffffffffffffffffffffffff021916908373ffffffffffffffffffffffffffffffffffffffff16021790555080600180840381548110610bde57fe5b90600052602060002090600a02016009019080519060200190610c02929190612204565b507f99e7fdd11e2b03e53f05833e76a5692e52f8cf8540719d621b99b8583ede129e823383604051808481526020018373ffffffffffffffffffffffffffffffffffffffff1673ffffffffffffffffffffffffffffffffffffffff16815260200180602001828103825283818151815260200191508051906020019080838360005b83811015610c9f578082015181840152602081019050610c84565b50505050905090810190601f168015610ccc5780820380516001836020036101000a031916815260200191505b5094505050505060405180910390a15050565b60018181548110610cec57fe5b90600052602060002090600a0201600091509050806000018054600181600116156101000203166002900480601f016020809104026020016040519081016040528092919081815260200182805460018160011615610100020316600290048015610d985780601f10610d6d57610100808354040283529160200191610d98565b820191906000526020600020905b815481529060010190602001808311610d7b57829003601f168201915b505050505090806001018054600181600116156101000203166002900480601f016020809104026020016040519081016040528092919081815260200182805460018160011615610100020316600290048015610e365780601f10610e0b57610100808354040283529160200191610e36565b820191906000526020600020905b815481529060010190602001808311610e1957829003601f168201915b5050505050908060020160009054906101000a900473ffffffffffffffffffffffffffffffffffffffff16908060030154908060040154908060050154908060060154908060070160009054906101000a900473ffffffffffffffffffffffffffffffffffffffff16908060080160009054906101000a900473ffffffffffffffffffffffffffffffffffffffff16908060080160149054906101000a900460ff1690806009018054600181600116156101000203166002900480601f016020809104026020016040519081016040528092919081815260200182805460018160011615610100020316600290048015610f715780601f10610f4657610100808354040283529160200191610f71565b820191906000526020600020905b815481529060010190602001808311610f5457829003601f168201915b505050505090508b565b3373ffffffffffffffffffffffffffffffffffffffff16600180840381548110610fa157fe5b90600052602060002090600a020160070160009054906101000a900473ffffffffffffffffffffffffffffffffffffffff1673ffffffffffffffffffffffffffffffffffffffff161461105c576040517f08c379a00000000000000000000000000000000000000000000000000000000081526004018080602001828103825260208152602001807f42757965722063616e206f6e6c7920636f6e6669726d2064656c69766572792e81525060200191505060405180910390fd5b600180600184038154811061106d57fe5b90600052602060002090600a020160080160146101000a81548160ff0219169083151502179055506001808303815481106110a457fe5b90600052602060002090600a020160020160009054906101000a900473ffffffffffffffffffffffffffffffffffffffff1673ffffffffffffffffffffffffffffffffffffffff166108fc6001808503815481106110fe57fe5b90600052602060002090600a0201600601549081150290604051600060405180830381858888f1935050505015801561113b573d6000803e3d6000fd5b5060018083038154811061114b57fe5b90600052602060002090600a020160020160009054906101000a900473ffffffffffffffffffffffffffffffffffffffff1660018084038154811061118c57fe5b90600052602060002090600a020160080160006101000a81548173ffffffffffffffffffffffffffffffffffffffff021916908373ffffffffffffffffffffffffffffffffffffffff160217905550336001808403815481106111eb57fe5b90600052602060002090600a020160020160006101000a81548173ffffffffffffffffffffffffffffffffffffffff021916908373ffffffffffffffffffffffffffffffffffffffff160217905550600060018084038154811061124b57fe5b90600052602060002090600a020160070160006101000a81548173ffffffffffffffffffffffffffffffffffffffff021916908373ffffffffffffffffffffffffffffffffffffffff160217905550806001808403815481106112aa57fe5b90600052602060002090600a020160090190805190602001906112ce929190612204565b507f9b33742a84e13820447f864aac4bb2180717d657e9f33d5249d53e80a3120614823383604051808481526020018373ffffffffffffffffffffffffffffffffffffffff1673ffffffffffffffffffffffffffffffffffffffff16815260200180602001828103825283818151815260200191508051906020019080838360005b8381101561136b578082015181840152602081019050611350565b50505050905090810190601f1680156113985780820380516001836020036101000a031916815260200191505b5094505050505060405180910390a15050565b60608060008060008060606001808903815481106113c557fe5b90600052602060002090600a02016000016001808a03815481106113e557fe5b90600052602060002090600a02016001016001808b038154811061140557fe5b90600052602060002090600a0201600401546001808c038154811061142657fe5b90600052602060002090600a0201600601546001808d038154811061144757fe5b90600052602060002090600a020160020160009054906101000a900473ffffffffffffffffffffffffffffffffffffffff166001808e038154811061148857fe5b90600052602060002090600a020160070160009054906101000a900473ffffffffffffffffffffffffffffffffffffffff166001808f03815481106114c957fe5b90600052602060002090600a0201600901868054600181600116156101000203166002900480601f01602080910402602001604051908101604052809291908181526020018280546001816001161561010002031660029004801561156f5780601f106115445761010080835404028352916020019161156f565b820191906000526020600020905b81548152906001019060200180831161155257829003601f168201915b50505050509650858054600181600116156101000203166002900480601f01602080910402602001604051908101604052809291908181526020018280546001816001161561010002031660029004801561160b5780601f106115e05761010080835404028352916020019161160b565b820191906000526020600020905b8154815290600101906020018083116115ee57829003601f168201915b50505050509550829250819150808054600181600116156101000203166002900480601f0160208091040260200160405190810160405280929190818152602001828054600181600116156101000203166002900480156116ad5780601f10611682576101008083540402835291602001916116ad565b820191906000526020600020905b81548152906001019060200180831161169057829003601f168201915b505050505090509650965096509650965096509650919395979092949650565b60008211611743576040517f08c379a000000000000000000000000000000000000000000000000000000000815260040180806020018281038252601f8152602001807f50726963652073686f756c642062652067726561746572207468616e20302e0081525060200191505060405180910390fd5b61174b612284565b848160000181905250838160200181905250670de0b6b3a76400008302816080018181525050818160a00181815250508060a001518160800151028160c001818152505033816040019073ffffffffffffffffffffffffffffffffffffffff16908173ffffffffffffffffffffffffffffffffffffffff16815250506000548160600181815250506001819080600181540180825580915050906001820390600052602060002090600a020160009091929091909150600082015181600001908051906020019061181d929190612322565b50602082015181600101908051906020019061183a929190612322565b5060408201518160020160006101000a81548173ffffffffffffffffffffffffffffffffffffffff021916908373ffffffffffffffffffffffffffffffffffffffff160217905550606082015181600301556080820151816004015560a0820151816005015560c0820151816006015560e08201518160070160006101000a81548173ffffffffffffffffffffffffffffffffffffffff021916908373ffffffffffffffffffffffffffffffffffffffff1602179055506101008201518160080160006101000a81548173ffffffffffffffffffffffffffffffffffffffff021916908373ffffffffffffffffffffffffffffffffffffffff1602179055506101208201518160080160146101000a81548160ff021916908315150217905550610140820151816009019080519060200190611977929190612322565b5050505060008081548092919060010191905055507f07f1daaf29deb2174f09cde65b5f2c5b6d80bb806373f62cb776fc3d0227f9a98582606001518360c001513360405180806020018581526020018481526020018373ffffffffffffffffffffffffffffffffffffffff1673ffffffffffffffffffffffffffffffffffffffff168152602001828103825286818151815260200191508051906020019080838360005b83811015611a37578082015181840152602081019050611a1c565b50505050905090810190601f168015611a645780820380516001836020036101000a031916815260200191505b509550505050505060405180910390a15050505050565b3373ffffffffffffffffffffffffffffffffffffffff16600180830381548110611aa157fe5b90600052602060002090600a020160020160009054906101000a900473ffffffffffffffffffffffffffffffffffffffff1673ffffffffffffffffffffffffffffffffffffffff161415611b40576040517f08c379a00000000000000000000000000000000000000000000000000000000081526004018080602001828103825260268152602001806124116026913960400191505060405180910390fd5b34600180830381548110611b5057fe5b90600052602060002090600a02016006015414611bb8576040517f08c379a000000000000000000000000000000000000000000000000000000000815260040180806020018281038252603381526020018061248e6033913960400191505060405180910390fd5b60001515600180830381548110611bcb57fe5b90600052602060002090600a020160080160149054906101000a900460ff16151514611c5f576040517f08c379a000000000000000000000000000000000000000000000000000000000815260040180806020018281038252601d8152602001807f5468652070726f64756374206861766520736f6c6420616c726561647900000081525060200191505060405180910390fd5b33600180830381548110611c6f57fe5b90600052602060002090600a020160070160006101000a81548173ffffffffffffffffffffffffffffffffffffffff021916908373ffffffffffffffffffffffffffffffffffffffff1602179055507f2c9b5e9655a41ab13c5183c231239df125ecbd546a947624c913cfd43094906e8133604051808381526020018273ffffffffffffffffffffffffffffffffffffffff1673ffffffffffffffffffffffffffffffffffffffff1681526020019250505060405180910390a150565b60008111611d85576040517f08c379a00000000000000000000000000000000000000000000000000000000081526004018080602001828103825260278152602001806123c86027913960400191505060405180910390fd5b3373ffffffffffffffffffffffffffffffffffffffff16600180840381548110611dab57fe5b90600052602060002090600a020160020160009054906101000a900473ffffffffffffffffffffffffffffffffffffffff1673ffffffffffffffffffffffffffffffffffffffff1614611e66576040517f08c379a000000000000000000000000000000000000000000000000000000000815260040180806020018281038252601f8152602001807f4f6e6c79206f776e65722063616e20706c6163652073656c6c206f726465720081525060200191505060405180910390fd5b60001515600180840381548110611e7957fe5b90600052602060002090600a020160080160149054906101000a900460ff16151514611ef0576040517f08c379a00000000000000000000000000000000000000000000000000000000081526004018080602001828103825260278152602001806124376027913960400191505060405180910390fd5b83600180840381548110611f0057fe5b90600052602060002090600a02016000019080519060200190611f24929190612204565b5082600180840381548110611f3557fe5b90600052602060002090600a02016001019080519060200190611f59929190612204565b5080600180840381548110611f6a57fe5b90600052602060002090600a020160040181905550600180830381548110611f8e57fe5b90600052602060002090600a020160040154600180840381548110611faf57fe5b90600052602060002090600a02016005015402600180840381548110611fd157fe5b90600052602060002090600a02016006018190555033600180840381548110611ff657fe5b90600052602060002090600a020160020160006101000a81548173ffffffffffffffffffffffffffffffffffffffff021916908373ffffffffffffffffffffffffffffffffffffffff160217905550600060018084038154811061205657fe5b90600052602060002090600a020160080160146101000a81548160ff0219169083151502179055506040518060200160405280600081525060018084038154811061209d57fe5b90600052602060002090600a020160090190805190602001906120c1929190612204565b507f07f1daaf29deb2174f09cde65b5f2c5b6d80bb806373f62cb776fc3d0227f9a96001808403815481106120f257fe5b90600052602060002090600a02016000018360018086038154811061211357fe5b90600052602060002090600a0201600601543360405180806020018581526020018481526020018373ffffffffffffffffffffffffffffffffffffffff1673ffffffffffffffffffffffffffffffffffffffff1681526020018281038252868181546001816001161561010002031660029004815260200191508054600181600116156101000203166002900480156121ed5780601f106121c2576101008083540402835291602001916121ed565b820191906000526020600020905b8154815290600101906020018083116121d057829003601f168201915b50509550505050505060405180910390a150505050565b828054600181600116156101000203166002900490600052602060002090601f016020900481019282601f1061224557805160ff1916838001178555612273565b82800160010185558215612273579182015b82811115612272578251825591602001919060010190612257565b5b50905061228091906123a2565b5090565b6040518061016001604052806060815260200160608152602001600073ffffffffffffffffffffffffffffffffffffffff16815260200160008152602001600081526020016000815260200160008152602001600073ffffffffffffffffffffffffffffffffffffffff168152602001600073ffffffffffffffffffffffffffffffffffffffff168152602001600015158152602001606081525090565b828054600181600116156101000203166002900490600052602060002090601f016020900481019282601f1061236357805160ff1916838001178555612391565b82800160010185558215612391579182015b82811115612390578251825591602001919060010190612375565b5b50905061239e91906123a2565b5090565b6123c491905b808211156123c05760008160009055506001016123a8565b5090565b9056fe50726963652063616e6e6f74206265206c657373207468616e206f7220657175616c20746f203042757965722063616e206f6e6c79207265717565737420666f7220726566756e642e53656c6c65722063616e6e6f7420627579206869732f686572206f776e2070726f647563742e5468652070726f6475637420686173206265656e2064656c6976657269656420616c72656164795468652070726f647563742064656c697665727920686173206265656e20636f6e6669726d6564206279204275796572427579657220627579207072696365206d7573742062652073616d6520617320746865207072696365206f662073656c6c6572a265627a7a7231582001223e4b97960bf7ee3e4bb1c4b62b8de48a12047bf18b9f6aa45ca107c5d98764736f6c63430005100032",
  "source": "// SPDX-License-Identifier: MIT\npragma solidity >=0.4.21 <0.7.0;\n\n// product registration.\n// buyer buys the product.\n// buyer confirms delivery so money will be transferred to the seller\n\ncontract FoodSupply{\n\n  uint counter = 1; // for productId\n\n  struct Product{\n    string name;\n    string details;\n    address payable seller;\n    uint productId;\n    uint price; // in wel\n    uint quantity; // in kgs\n    uint totalPrice;\n    address payable buyer;\n    address preseller;\n    bool delivered;\n    string review;\n  }\n\n  Product[] public products;\n\n  // events.\n  event registered(string name, uint productId, uint totalPrice, address seller);\n  event bought(uint productId, address buyer);\n  event delivered(uint productId, address buyer,string review);\n  event refunded(uint productId,address buyer, string review);\n  \n  // creating function registerProduct - to product registration.\n  function registerProduct(string memory _name, string memory _details, uint _price, uint _quantity) public{\n\n    require(_price > 0, \"Price should be greater than 0.\");\n    // enter product details inculding who is seller\n    Product memory newProduct;\n    newProduct.name = _name;\n    newProduct.details = _details;\n    newProduct.price = _price * 10**18; // converting wels to ether\n    newProduct.quantity = _quantity;\n    newProduct.totalPrice = newProduct.price * newProduct.quantity;\n    newProduct.seller = msg.sender;\n    newProduct.productId = counter;\n    products.push(newProduct);\n    counter++;\n\n    emit registered(_name, newProduct.productId, newProduct.totalPrice, msg.sender);\n  }\n\n  // creating function getBalance -  to display the current balance in the contract \n  function getDetails(uint _productId) public view returns (string memory, string memory, uint, uint, address, address, string memory){\n    return  (products[_productId - 1].name, products[_productId - 1].details, products[_productId - 1].price, products[_productId - 1].totalPrice, products[_productId - 1].seller, products[_productId - 1].buyer, products[_productId - 1].review);\n  }\n\n  // creating function buy - for buyer buys the product.\n  function buy(uint _productId) payable public{\n\n    // seller cannot buy his/her own product\n    require(products[_productId - 1].seller != msg.sender,\"Seller cannot buy his/her own product.\");\n\n    // players must invest astleast 1 ether\n    require(products[_productId - 1].totalPrice == msg.value,\"Buyer buy price must be same as the price of seller\");\n\n    // once product is delivered then it cannot be buyed again\n    require(products[_productId - 1].delivered == false ,\"The product have sold already\");\n    products[_productId - 1].buyer = msg.sender;\n    \n    emit bought(_productId, msg.sender);\n  }\n\n  // creating function delivery - buyer confirms delivery so money will be transferred to the seller\n  function delivery(uint _productId, string memory _review) public{\n\n    // buyer can only able to confirm about the product delivery\n    require(products[_productId - 1].buyer == msg.sender,\"Buyer can only confirm delivery.\");\n\n    products[_productId - 1].delivered = true;\n    products[_productId - 1].seller.transfer(products[_productId - 1].totalPrice);\n    products[_productId - 1].preseller = products[_productId - 1].seller;\n    products[_productId - 1].seller = msg.sender;\n    products[_productId - 1].buyer = address(0);\n    products[_productId - 1].review = _review;\n    emit delivered(_productId, msg.sender, _review);\n\n  }\n  \n  \n  // creating function refund - buyer request refund during delivery so money will be transferred back to the buyer\n  function refund(uint _productId, string memory _review) public{\n\n    // buyer can only able to confirm about the product delivery\n    require(products[_productId - 1].buyer == msg.sender,\"Buyer can only request for refund.\");\n    require(products[_productId - 1].delivered == false ,\"The product delivery has been confirmed by Buyer\");\n    products[_productId - 1].buyer.transfer(products[_productId - 1].totalPrice);\n    products[_productId - 1].buyer = address(0);\n    products[_productId - 1].review = _review;\n    emit refunded(_productId, msg.sender,_review);\n\n  }\n\n  // function for changing reselling it. (optional function)\n  function reSell(string memory _name, string memory _details, uint _productId, uint _price) public {\n\n    // price must be gearter than zero\n    require(_price > 0,\"Price cannot be less than or equal to 0\");\n\n    // only rightful owner can sell the product\n    require(products[_productId - 1].seller == msg.sender,\"Only owner can place sell order\");\n    require(products[_productId - 1].delivered == false ,\"The product has been deliveried already\");\n\n    // reselling the product.\n    products[_productId - 1].name = _name;\n    products[_productId - 1].details = _details;\n    products[_productId - 1].price = _price;\n    products[_productId - 1].totalPrice = products[_productId - 1].quantity * products[_productId - 1].price; \n    products[_productId - 1].seller = msg.sender;\n    products[_productId - 1].delivered = false;\n    products[_productId - 1].review = \"\";\n    emit registered(products[_productId - 1].name, _productId, products[_productId - 1].totalPrice, msg.sender);\n  }\n\n}",
  "sourcePath": "E:/my learn/mini project/source code/frontend/contracts/FoodSupply.sol",
  "compiler": {
    "name": "solc",
    "version": "0.5.16+commit.9c3226ce.Emscripten.clang"
  },
  "schemaVersion": "3.3.4",
  "updatedAt": "2021-04-23T13:33:14.534Z",
  "networkType": "ethereum",
  "devdoc": {
    "methods": {}
  },
  "userdoc": {
    "methods": {}
  }
}